:020000041000EA
:1000000000B5324B212058609868022188439860DF
:10001000D860186158612E4B002199600221596106
:100020000121F02299502B49196001219960352056
:1000300000F044F80222904214D00621196600F024
:1000400034F8196E01211966002018661A6600F04E
:100050002CF8196E196E196E052000F02FF8012189
:100060000842F9D1002199601B49196000215960AB
:100070001A491B48016001219960EB211966A021F2
:10008000196600F012F800219960164914480160C1
:100090000121996001BC002800D000471248134993
:1000A000086003C880F30888084703B5996A0420EC
:1000B0000142FBD001200142F8D103BD02B5186610
:1000C0001866FFF7F2FF186E186E02BD00000240BE
:1000D000000000180000070000035F00212200005C
:1000E000F4000018222000A00001001008ED00E03C
:1000F00000000000000000000000000074B24E7A12
:1001000000080020C9200010C90200106102001080
:10011000C9020010C9020010C9020010000000004E
:10012000000000000000000000000000C9020010F4
:10013000C902001000000000C9020010C90200102E
:10014000850D0010C9020010C9020010C90200107C
:10015000C9020010910D0010C9020010C902001060
:10016000C9020010C9020010C9020010C902001023
:10017000C9020010C9020010C9020010C902001013
:10018000C9020010C9020010C9020010C902001003
:10019000C9020010C9020010C9020010C9020010F3
:1001A000C9020010C902001080B500F08FF880BDB0
:1001B00080B500F094F880BD40B584B002AE0096E2
:1001C00000F008F9029A039B04B040BD0B461146AB
:1001D0001A4680B500F03CFA80BDC0460A460021B0
:1001E00080B500F035FA80BD10B500F03DFC002868
:1001F00001D0002010BD012010BDC04610B500F098
:1002000033FC002801DB002010BD012010BDC046DA
:1002100010B500F029FC002801DD002010BD0120F0
:1002200010BDC04610B500F059FC002801DA0020CE
:1002300010BD012010BDC04610B500F04FFC0028D5
:1002400001DC002010BD012010BDD4D440B584B025
:1002500002AE009600F0F0FC029A039B04B040BD91
:10026000684600231B689D4601F02EFE2846A047E5
:1002700000F064FD69462439016002E080F30988DA
:10028000FFE74046494652465B460FB5F0B4EFF3F0
:1002900014800223584080F31488BFF36F8FF0BCA2
:1002A0000FBC8046894692469B4600BD4046494663
:1002B00052465B460FB5F0B4684601F0DBFD08B06E
:1002C00000BD03C885468F4620BFFDE710B500235B
:1002D0009A4203D0CC5CC4545B1CF9E710BD10B546
:1002E00081420AD28B18834207D9491E431E002A35
:1002F0000CD08C5C9C54521EF9E70346002A05D0B2
:100300000C781C705B1C491C521EF7E710BDF8B539
:100310000C46054620260029374603D0204600F02B
:100320002BF80746002D03D0284600F025F8064696
:10033000B81B1F2801D90020F8BD01D12846F8BDFF
:10034000F94389191F22131A2A469A40401CC540B6
:10035000002000290DD0D30F6D00ED18EB431B19C1
:1003600000D52D1B52001043DB0F491C02461846D6
:10037000EFE751000843F8BD70B5010C4A424A410D
:10038000110110224A40D040FF2212020240534283
:100390005341DA0008235340D840F02303405C4225
:1003A0005C41A30004245C40E0400C24044065420E
:1003B00065416C00022526466E40F0402D1A40082B
:1003C0000126F6430643701C28405118C918091924
:1003D000081870BDF0B587B0154606460C9C00297C
:1003E00018D00F46002D029501931CD0002B3DD054
:1003F00005461846FFF7C0FF06903846FFF7BCFFDA
:100400000699081A202865D3002C00D1AAE025609F
:100410006760A7E0002B53D0002C00D1A2E000279A
:1004200081C4384609E1002B5DD0002E7CD05D1ED2
:100430002B4200D086E0002C02D02946394003C46C
:100440009D4369087E4A0A40A81A7E4982080840EE
:100450000A408018010940187B4901407B48484305
:10046000000EC740002138460F46E6E006906B1E9E
:100470001D4239D1002C04D000211A46324022609E
:100480006160012D069800D1D7E0AB4359086C4A52
:100490000A40981A6B49820808400A4080180109EE
:1004A00040186949014069484843030E1F211A4614
:1004B0000A40D6409943780088403043DF40BCE092
:1004C0002946FFF724FF002C3AD000224543711B38
:1004D00006C435E00094411C0023202915D12021B9
:1004E00028461D466CE0A8E02846FFF745FF054674
:1004F0003846FFF741FF291A2131002520290094B1
:1005000033D1202106982B465AE03246CA401C4679
:100510001F23181A3B4683401343CF4086403D4675
:1005200037461E4623464DE0384619461D46FFF71E
:10053000EEFE002C04D000224543791B226061604E
:1005400000277AE006901846FFF716FF0546384662
:10055000FFF712FF2D1A1F2D15D3002C02D006987D
:10056000206055E70020074667E01F291AD830466B
:100570003346CB402022521A3E4696401E43CF407F
:1005800090402B460CE00094691C30463246CA402D
:100590001F235B1B3E469E401643CF4098400023DE
:1005A0003D460EE00846203834463246C2404023DD
:1005B0005B1A3E469E401643C7409C402346304649
:1005C0003E46074600200690002925D0039305915A
:1005D000F10F6A0051180497FA0F7500AA18029ECD
:1005E000931B0C46019DAC41CF43D04380196F4112
:1005F00000D40C46002F1E4600D41646F80F039A6E
:100600005100069B0B43D10F049A520057180599CD
:10061000491E06902546D7E70022D143481C524187
:10062000D90F11407A008F185A000099002901D083
:100630000E604D60069911430843394607B0F0BD7E
:1006400055555555333333330F0F0F0F010101014A
:1006500000239A4202D0C1545B1CFAE77047D4D4FD
:10066000F0B591B00A920F46CD4A08931946114051
:100670000B9709921740CB4A451C3E4696410024F1
:100680006D1EA641E2430792C74A01236D1EC54D68
:100690006E4106940BD21546024644422C46BC419C
:1006A00011D20120C0040B9E0643104675E102469C
:1006B000BE480A9D5D1906464E416D1EA641ED1AC3
:1006C0008641B94D35D205930A9B5C422C468C413C
:1006D00005D20120C004089E064318465DE13C4651
:1006E0006C401646144311D100250799491CAC4AA9
:1006F0006A410B9C08986040504073404B40034354
:100700003046264600D048E1AB4E45E10C466C40F1
:100710001C4302D11846089E3FE134463C4300D1B9
:10072000ADE01C460C43324630460B9E059B00D183
:1007300033E11D4610460A9BD41A8F4100D3069D13
:10074000002D19460B9A089C00D1014605910E9187
:10075000002D274600D11746069095493846084097
:100760000F90002D00D122461046084006460D90FD
:10077000002D00D1069306980C900B92140D8D4815
:10078000401C0440390D01400A9103D10EA800F02D
:1007900015F90A90002C334606D10CA800F00EF98A
:1007A00004460D9B0C98069000210798401C019070
:1007B00009984841099008970B9878400B900E983B
:1007C0000290400F0F9AD200101803900120C60526
:1007D000069F7A0FDB009D1804963543FF000A9EA2
:1007E000A64202D13846294613E0321B3F2A10D8D0
:1007F00040200692821A3846294600F001F90C463C
:100800000443601E844138462946069A00F010F9D8
:100810002043039C049A1443029AD2000B9B002BA2
:100820000ED487184C41E001059D234648D5012090
:1008300038407908DA078F180743761C5B083FE0D9
:100840000A961346434025464D401D43171A8C41D6
:100850000026002D3546059800D19DE0234605462B
:10086000049884420A9E2BD2002B13D0002B1AD05E
:1008700018461C46FFF780FD2346044617E0324623
:1008800019431846089E00D087E013400B98089E35
:10089000064022E7002F08D038461C46FFF76CFDC3
:1008A0002346044602E0202401E020242034083CB2
:1008B00038461946224600F0A3F807460B46361B79
:1008C00009983C49019A089C044015408E4203DD7A
:1008D0003548044326465FE00894002E059514DC55
:1008E00032463F32384619461D4600F089F80C461C
:1008F0000443601E84410120821B3846294600F0D3
:1009000097F807460B4627430026072038400B90F0
:10091000D8082749084031050C1808980443F808FE
:1009200059074518079805400598054300F098F8C1
:10093000022815D0012819D000280B9A22D10020B6
:10094000691C26464641042A00D82946042A00D8B4
:100950002646042A18D101220A405518464119E0BA
:1009600008980599014311D10B9A04E0089805995C
:1009700001430B9A06D0002A04D000206D1C44418C
:10098000264607E0264603E00D4601E026460B9A80
:10099000002A01D000F066F82846314611B0F0BDBB
:1009A000FFFFFF7FFFFFEF7F0000F07F0000108060
:1009B000FFFF0F00FE0700000000F87FF8B50446B7
:1009C00006684568002D06D0002D0BD02846FFF79D
:1009D000D3FC07460AE0002E06D03046FFF7CCFCD9
:1009E000074602E0202701E0202720373A460B3A4D
:1009F0003046294600F004F803C40C20C01BF8BDA3
:100A000010B5034690060BD4002A0DD0914020204B
:100A1000801A1C46C4400C4318469040234605E00B
:100A2000203A9340002001E018460B46194610BDBD
:100A300010B50B4691060BD4002A0DD0D0402021D2
:100A4000891A1C468C400443D3401946234605E0CE
:100A5000203AD340002101E019460346184610BD54
:100A60000020704700207047FCB50193194D0E46D9
:100A70002E40194F012344423C46B44101D218464E
:100A8000FCBD0090019805405442AF41184618D370
:100A9000019B1046009F38433543054312D01C4646
:100AA0000D460C400020C043002C0DD4BC1A2C462F
:100AB0009C4106DB0098504059400143481E81414B
:100AC0000846FCBD0020FCBDD41B1C46AC41F1DA3D
:100AD000F7E7C046FFFFFF7F0000F07FFCB5009303
:100AE0000192174E0F4637400024E243154D434212
:100AF0002B46BB4105D3009B1E40019B5B42B54189
:100B000002D214462046FCBD019B054603433E43EA
:100B10001E43009DF6D00E4601992B46334003D468
:100B2000431A3346AB4102E00B1A2B46B34114463D
:100B3000E8DB48406E400643701E86413446E1E7DC
:100B4000FFFFFF7F0000F07FF0B50446084E334002
:100B500001200025074F52423A469A41024600D3EF
:100B60002A46314063428F4100D328461043F0BDEE
:100B7000FFFFFF7F0000F07FF8B506460020002948
:100B800001DAC44300E001244A00570D1B4DAF4277
:100B900003462FD31A483A184020C04382420CD84B
:100BA0000120C207002440421346A341002900DA75
:100BB000204600291EDA13461CE00F48C343C843F1
:100BC00018430D4B1B1AC8170090F043C043294629
:100BD00034318F4205D2EA1B34321946FFF728FF21
:100BE00003E00C321946FFF70BFF2246009B00F092
:100BF00009F80B461946F8BDFFFF0F00FF03000080
:100C0000C1FBFFFFB0B5514343435918030C140C0B
:100C10001D466543491992B2534380B24243150CB5
:100C2000EB181D0C49199BB260431818030CC91826
:100C3000000492B28018B0BD7FB502AC0094CC170E
:100C400061406040001BA141DD176B406A40521BB0
:100C5000AB41FFF7BFFB039A6240029B6340089ED3
:100C60001B1B3360A2417260654069406840401BB5
:100C7000A94104B070BDD4D4EFF3108172B6084A14
:100C8000106D002808D003681365536D834201D1AD
:100C9000002353650022026081F310887047C0462C
:100CA000580C0020EFF3108272B600280FD0436872
:100CB000002B00D019604160002908D000230B6090
:100CC0000368002B00D1016082F31088704701F0A7
:100CD0008DF8EFF3108272B6002807D00368016028
:100CE000002903D00B6082F31088704701F07EF872
:100CF00080B50D48406900280ED0416900290BD00D
:100D000009680A4A914209D10A490968090608D1C5
:100D10001030FFF7AFFA80BD01F068F8044801F029
:100D20006FF8054801F06CF8580C002075F53BB8D9
:100D3000402F001004ED00E0582F001080B5FFF7A1
:100D4000D7FF80BDF8B517460C460546202000F0B9
:100D5000BBFD0646384600F0B7FD0849016039186A
:100D600024393161706107D00D604C60044808621D
:100D7000304601F075F8F8BD01F038F875F53BB86C
:100D80006D020010014801210160704734400540A8
:100D9000F0B58BB0012087020390400302901E48FB
:100DA00080690190C003049700D448E1039840048F
:100DB0001A4908601A490E68F2B24D68340CE0B264
:100DC000330ADBB27706BF0F03D02904049F45D056
:100DD00028E00B2B049F00D931E12D0C9B0002A7CA
:100DE000FB58049F9F46C0463B0E0010090F0010A1
:100DF0003F100010150F00103F100010230F0010BF
:100E00004B0F0010250E00106B0F0010710F00101B
:100E1000F10F001007100010800011505000115009
:100E200000001050FB4803998161FB48001FC90373
:100E300001601121C902016001E1F84800214170FF
:100E40000170002A05D0F6490978012901D10399DA
:100E5000017000950020F1490222D0E0A12A1AD1A8
:100E6000212B18D1F84842684021F94B5A541946B1
:100E700040311C790C711B7A4B7100788871100E0F
:100E8000C870100C8870100A4870002007221346A2
:100E900000F0CEFCD3E0212AC4D1232B00D1D9E12C
:100EA000222B00D1B8E0202B00D0C8E009A80021F7
:100EB0008171818009910398C003F84A1168014249
:100EC000FCD01068402111607A1E0240412A00D3F4
:100ED000E0E1072A00D3072209ACF4492046FFF7D6
:100EE00063F9EE490868029A1043086008683843BD
:100EF0000860ED49099848606279EA4B1A720A9ACB
:100F00001A71A2790A708BE0002800D0A2E1E548AE
:100F1000002104E0002800D09CE1E2480399017020
:100F200098E100200090DF490D310246034600F0B1
:100F300001FA03988007DA490860E349D84A126841
:100F4000024263D1491CF9D379E0310E012900D165
:100F500068E1032900D170E1022900D07AE100950F
:100F6000D1491C3100204B2265E1CE48407841E058
:100F7000D20600D056E7CF4A121D0323DB01152409
:100F8000E40608942B24A40607940024382C53D09C
:100F90001668002E0CD0022E0FD0032E11D0822EF8
:100FA0001CD0832E049F1FD10E191F46079D18E0E9
:100FB000029EC14D665166590DE00E191F46089DEF
:100FC00002E00E191F46079D2F43F7604026BA4DD9
:100FD00066516659049F3E43665105E00E191F464F
:100FE000089D2F43B760049F08348033121DCDE75E
:100FF000AC488078AE490870009500200122FF239C
:1010000000F098F91BE0A749887023E17F20044095
:10101000A3485038046012E0A2490873A24840680F
:101020003946B031884200D014E19E48007BC007A9
:1010300000D00FE100F0A6FB9A4948700AE101993F
:10104000C80600D48CE0974EB06901281ADB376AD5
:10105000874200D21EE1716A8F4200D91AE10A1A52
:10106000F16909183C1A402C00DB40240025284671
:10107000234600F035F9B0690019B84200D00546A2
:10108000B561049F85487C3008908548806807904A
:1010900000218E4A10294DD04800431C01201F2BEF
:1010A000069001D8984000E00020079B18423CD0F1
:1010B000CD007A4C60594023059563517F1E07404F
:1010C000412F00D3E6E0072900D9E1E0022915D13C
:1010D0000898002F12D004788023D55C8126965D75
:1010E000AD1BEDB2802D06D0D55C6D1CD554D35C04
:1010F0007F251D405455401C7F1EEAE7744B585C09
:10110000069C44405C544B424B41002800D1039B59
:101110006248059C0019012B049F03D10368029CBF
:101120002343036003683B430360089880300890C2
:10113000491CAFE700252E46102E0DD00798E84039
:10114000C00706D0072E00D9A2E0062D01D100F07D
:1011500085FBAD1C761CEFE751480799816001992A
:10116000C80454D50120C1044D4A116080070068AD
:10117000000F012842D10398010410680007800F76
:10118000FBD054480368474A9362534B1C68D462AF
:101190001D680C2425431D6003252E030768B743F3
:1011A000029E374307600668082737431726B74370
:1011B00007603B4F2D0406682E430660FD6A022639
:1011C0002E43FE62344A166804252E4316607C6264
:1011D000424C002C02D000BF641CFAE73C680C4271
:1011E000FCD0092179622C4A1168A94311602D4A6B
:1011F000916A0160D06A18603A46049F503A002014
:1012000010602649029808600868384308600BB0EF
:10121000F0BDC0465000115084001050B0080020AE
:10122000580C002020494B20C883264808610095AF
:101230000831002012221346E2E6032800D9FEE618
:1012400002A1085C400087440C0800200813170521
:10125000580C002000F092F8F1E615490422CA70FB
:1012600009208870032048700A7000950020C6E6A7
:1012700012480C211A2402E0114804210A242246B3
:1012800000F088F8009500200949FF232246B7E6C0
:1012900000F0F4FC00F0A2FD80001150840010501A
:1012A00050001150580C00200C0800200001105074
:1012B000B0080020003000108C001050F42F0010F7
:1012C000302F00108A2E0A0048F4FFFFB0090020DA
:1012D000A00800207C40014040C00140B817FEFF3C
:1012E000F8B51C467F2505401048475D01263B4662
:1012F00073404355944216D8402C224600D34022D6
:10130000E8010B4BC0188030FEF752FF002F01D1CF
:10131000B00201E0092080022043F1030143E8000C
:10132000034A8150F8BD00F059FDC046A0080020D6
:1013300080001050B0B51C4604AB1D8895422B466A
:1013400000DB1346002D00D1134600280DD1412BA0
:1013500005DB084D4023AB611C3516C502E0054A8C
:1013600000259561044A012515702246FFF7B8FF54
:10137000B0BDC046580C0020A0080020E0B50020F9
:10138000009003490D3102460346FFF7D3FF8CBDA1
:10139000580C0020F0B585B0049052480323029306
:1013A00043700270002425468D4206DA04984357A4
:1013B000DFB2002B06D401267EE02E4623462546CA
:1013C00027467BE04B1BE0263E40C02E14D1012671
:1013D000022B70D304982B185B78C020184080280B
:1013E00069D13F200340F806400DC318802B3E4FC3
:1013F00062D302261F465FE0F0203840E02828D163
:101400000126032B57D30498281803904078C02353
:101410000190184080284ED1039880780340802B9B
:1014200049D103903807000C019B9B061B0D1B182C
:101430001F20C00218401B27FF02B8423BD03F20AC
:10144000039F0740DB19D80A274F35D01F46029E5D
:1014500032E0F82038400126F0282CD1042B2AD382
:101460000498281803904078C023019018408028E1
:1014700021D1039880780090184080281BD10398D0
:10148000C0780340802B16D103463F2003400393CE
:101490007807C00A019B9B069B0B1818009B9B06B4
:1014A0001B0D1818039BC31810481818000D0E4F79
:1014B00002D104269EE70C4F76190123D8070DD0E0
:1014C0006B009D1C95420BD206484755DB1C93428E
:1014D00006D205460020E854354665E705B0F0BD64
:1014E00000F0CCFBB0080020FDFF00000000FFFF73
:1014F000B0B5C0B20122134683402D4C2361236056
:10150000C9B2091F03291AD87944097949008F44BF
:10151000011724328100274A8B5840241C43802322
:101520009C438C50C000244BC0181F234360885834
:101530000423984388508858082398438850B0BDA6
:1015400081001C4A8B5840241C4380239C438C50B0
:10155000C0001949401802210BE08100154A8B5840
:1015600040241C4380239C438C50C00012494018E7
:1015700004214160B0BD81000E4BCC58402525436D
:101580008024A543CD50C0000B4C001903244460B7
:10159000C85808240443CC50C8580424A043C85059
:1015A000C85802240443CC50C8589043C850B0BD1A
:1015B000180000D004C0014000400140024801680A
:1015C000C905FCD57047C04600C0044003490A68FD
:1015D00082430A608A680242FCD0704700C0004023
:1015E000F8B515460A4604461B491046FEF78FFE1D
:1015F000002C2FD00646009521681848002909D5EF
:1016000021683F220A40012A04D1A16801408E428C
:1016100000D1E16801256F0311498C4201D03846A1
:1016200000E0401C0F490A6802430A60FFF7CEFF42
:101630002560A660606821218843606020680028DA
:10164000FCD500980004C019E06060680821884358
:101650006060F8BD00F0CAFB001BB700FF0F000080
:101660000080024000C00040FEB5934279D81F467A
:101670000E4605461002110E00233A46FEF79CFD69
:10168000002D6AD02C68002C67D0616881423346F7
:10169000029701D260602C682979FE27394004291D
:1016A00001900ED1012B0CD1002C56D021680322C1
:1016B00091432160286800284FD08168C907FCD079
:1016C0001AE0002C49D00121C90222688A43226015
:1016D0002879092843D881002348415800290BD094
:1016E0004069FEF714FE3346401C002804D000BFBA
:1016F00000BF00BF401EF8E7286800282DD0016811
:10170000E02291430160297939402868042910D1E9
:101710000028029C21D001680322914319430160F3
:101720002868002819D00121994082680A42FCD01B
:1017300002E00028029C10D00121C90202680A437D
:1017400002602868002808D001994160287909289A
:1017500005D8800004490C50FEBD00F047FB00F0A6
:101760008DFA024800F052FB78080020EC2F0010A0
:10177000034A13681946506813689942FAD17047B2
:101780002440054000F000F800F000F81420008824
:1017900018210A88024990470246002001469047D6
:1017A00055420000F8B50446FFF7E2FF06460F4633
:1017B000002540366F412068002810D0C56620689B
:1017C00000280CD09C214058C00706D0FFF7D0FF5E
:1017D000301A38468841F2D2024D2846F8BD00F052
:1017E00005FBC046683600100068002804D0C16EB2
:1017F00001220A43C266704700F0F8FA0068002828
:1018000005D0406B0840411A48424841704700F0FB
:10181000EDFA0068002802D080214058704700F09F
:10182000E5FA0068002801D0406D704700F0DEFA4C
:101830001CB500240094FFF77DFD1CBD002808D0D6
:101840000549411811225201801800780978401A80
:10185000704700F0CBFAC04621020000B0B5EFF3AC
:10186000108572B6154C2046FFF7E8FF000613D02E
:101870001348215C491C2154225C205C07210A404A
:1018800044235A43A218126C402A15D808404343F7
:10189000E1180120402303E000210A460B460846D8
:1018A000C00703D00320FFF7C3FF02E00548002173
:1018B000017485F31088B0BD00F090FA340A00205E
:1018C00021020000580C0020F0B58BB0794D0028A3
:1018D00000D1E3E07146019177490968090600D01B
:1018E000E5E0A96D00260918A965EB6D7341024674
:1018F000296E491C2966EB65686E70416866696BE4
:10190000029210460F3000090390012006900C4609
:10191000059630468C4200D08BE0C0B2002850D0F3
:10192000012800D0BEE0FEF7C1FC6869002807D09E
:10193000EFF30880002800D16846614900F0B4F94F
:1019400004946048604900F0AFF9002009900790C6
:101950000890EFF3108072B6296D80F3108800298B
:101960001ED0FFF789F9044600F0CEF808A82146FA
:10197000FFF798F9EDE70024AC73A86B84420FD20F
:10198000A1082A6B515CA207520FD14003220A40E2
:10199000032A03D1204600F0EBF8A86B641CEDE7A6
:1019A000A87B0128E7D0EFF3108072B6EFF3108127
:1019B00072B62A6D81F31088002A04D080F3108853
:1019C000C7E7012035E00999089A2A65696580F31F
:1019D0001088079CA86B844229D2A008296B0E5C52
:1019E000A3075B0F3246DA4003271740032F16D0B8
:1019F000022F0CD0012F18D1204600F047F9A86E15
:101A00000021401CA866E86E4841E86605E007989A
:101A1000C00708D0204600F039F9069804E00222F9
:101A20009A4096430E5400200790641CD2E702208F
:101A3000049CA96B00228C4201D1144609E0A30842
:101A4000296BCB5C2646A407640FE340741C9B07FC
:101A500002D00592696B5DE7059A521C0592039BC3
:101A60009A42F7D16C63039AA01A52420123274687
:101A7000A418A5084E5DA407640FA34033434B553B
:101A8000541C0223944222463C46F0D200010F49E6
:101A9000451828460299FEF7A1FB00E00D352846BF
:101AA0000BB0F0BD0A490D22019800F013F803496C
:101AB0001722F9E7580C002004ED00E02030001058
:101AC0000008002000080020D00C0020D00C0020CE
:101AD0003730001014460D46064608481821084FB6
:101AE000B847301F00F0F8F806480221B8472846EA
:101AF0002146B84700F010F900F016F94B300010FD
:101B0000BD1C00106330001010B5104988421AD374
:101B10000D4A146B844216D9401AC10806220A40A5
:101B20008109615CD14089070DD0000900F010F8EF
:101B30008108615C8207520FD14003220A40032AC8
:101B400001D000F015F810BD580C0020D00C00207A
:101B50000649096B82088A5C83075B0FDA4003231E
:101B60001340401E022BF5D0401C7047580C00203B
:101B7000F0B595B0044605A8001D3C21FEF72EFBEC
:101B80003C48066B0594A008315CA207520F032461
:101B9000234693400B43335401200290364B01946B
:101BA0000298012861DB401E0F2860D80290800057
:101BB00005A908588108715C8207520FD1400222A2
:101BC0000A4322400101032A00D1401CCF181D46C0
:101BD00003015A1A59191546B1420BD28208B35C57
:101BE0008207520FD34023402A4610321031401C46
:101BF000022BF0D0204B002DD2D03868984231D340
:101C0000B0422FD2C01AC10806220A408109715C75
:101C1000D140890726D00009FFF79AFF8108049177
:101C2000715C039083075B0F0A46DA402240032A67
:101C30000CD09C400C43049834540298102807D1CF
:101C400001200C49887310200290019C0A4B09E086
:101C50000F28094B0BD8810005AA039C5450401C47
:101C60000290019C2D1F3F1DC5E715B0F0BD00F08F
:101C700005F8C046580C0020D00C002070460249E0
:101C80001222FFF727FFC0467C30001010B58108F4
:101C9000044A126B535C8007400F03248440A34323
:101CA000535410BD580C0020B0B50C460546A54253
:101CB00003D201CDFFF728FFF9E7B0BDB0B50C4660
:101CC0000546C8178443002C05D0287800F02EF86C
:101CD000641E6D1CF7E7B0BDB0B5002814D00446F3
:101CE000302000F023F8782000F020F80825002D9F
:101CF0000ED0200F0A2801D3573000E0303000F01A
:101D000015F86D1E2401F2E702480321FFF7D6FF04
:101D1000B0BDC046A030001080B50D2000F006F820
:101D20000A2000F003F880BD30BFFDE7F8B5044697
:101D3000284F387B002849D0EFF3108572B626482B
:101D4000FFF77CFDC0B2082837D00095224D284609
:101D5000FFF774FD00060CD111204001295C491CDD
:101D60002954285C072101404420484328180021B9
:101D7000016411204301E95C07221140442006461A
:101D80004E43AE19366C402E0ED1E95C491CE95425
:101D9000E95CEB5C13404343EB1800261E641140E2
:101DA00002464A43AA18166C402E10D248432818FF
:101DB0008455016C491C0164009D387C012803D0C6
:101DC00001203874FFF74AFD85F31088F8BDFFF74E
:101DD00055FFC046580C0020340A002070460249C6
:101DE0001222FFF777FEC0468E300010704602497F
:101DF0001722FFF76FFEC04665300010FFF794FF13
:101E00000346182270461946FFF764FE04460D4843
:101E10004069002801D1FFF7E9FF8069002806D05A
:101E200009490161446101210173FEF74AFA07483B
:101E30000721FFF743FF204600F00AF8FFF76CFF89
:101E4000FFF772FF580C002074320010443000106D
:101E500080B5026841681046FFF730FF80BDD4D4DA
:101E600080B5014602485030FEF71CFF80BDC046D9
:101E7000580C002080B505494969002902D0FFF7B8
:101E800043FE80BD0249FFF70FFF80BD580C0020C4
:101E90000008002007480849884202D0002204C0F8
:101EA000FAE706480649074A904202D008C908C026
:101EB000FAE7704778080020D00C002000080020C6
:101EC000943600107408002082B00446604806680A
:101ED00060480D21FFF7F2FE0120870237405E487F
:101EE00006D1401C844203D25C481021FFF7E6FE75
:101EF000F00703D05A481C21FFF7E0FEB00703D5D6
:101F000058481521FFF7DAFE300703D556481B2144
:101F1000FFF7D4FEF00603D554481921FFF7CEFE93
:101F2000B00603D552482E21FFF7C8FEF00503D5B1
:101F300050481521FFF7C2FEB00503D54E481821C1
:101F4000FFF7BCFE002F03D04C481A21FFF7B6FE66
:101F5000300503D544481B21FFF7B0FEF00403D53C
:101F600042481921FFF7AAFEB00403D540482E21AC
:101F7000FFF7A4FEF00303D541481521FFF79EFEAD
:101F8000B00303D53F481721FFF798FE700303D530
:101F90003D482421FFF792FE300303D53B481C2126
:101FA000FFF78CFEF00103D539481721FFF786FEB5
:101FB000B00103D537480E21FFF780FE0194364863
:101FC000064203D135481221FFF778FE300600257E
:101FD00001240028284602D51D48C5682046C007B0
:101FE00006D02F481421FFF769FE2846FFF774FE3C
:101FF000300400250028284602D5154805692046EA
:10200000C00706D027481821FFF758FE2846FFF7DB
:1020100063FE002F17D124480921FFF74FFE019CD2
:102020002046FFF759FE002C01D1FFF7DFFE1834E0
:1020300009498C4207D924681C480421FFF73EFE59
:102040002046FFF749FEFFF767FEFFF76DFEC0462B
:1020500028ED00E0A3300010FFFFFF1FB03000109C
:10206000C0300010DC300010383100105331001047
:102070006C310010F1300010063100101E310010DC
:102080009A310010AF310010C6310010EA31001053
:10209000063200101D3200103B3F0F032B320010A0
:1020A0003D3200105132001069320010382F0010FC
:1020B00080B5044841695030FEF7F4FDFEF718FE84
:1020C00080BDC046580C0020FFF7E4FE00F002F887
:1020D000FFF794FEFEB5364C364D281B40304121AB
:1020E000FEF715F90146281A334E3063021B120918
:1020F000B263FEF773F831488268314800252946FB
:10210000FEF720FE2F46F07B002850D1F06B002810
:1021100020D0FFF72DFB05460F46F16B002919D0A3
:10212000326F706F0295AC1A01973D4685418F68FA
:10213000CB68E41B9D410BD3BA18326743417367E8
:102140000868F0630020086030465030FEF7AAFDB2
:10215000029D019FFEF790FD002806D07061006986
:10216000FEF78CF800207061CDE7F06B00281CD0E2
:10217000316F726F491BBA418368C468C8185441F3
:10218000002102460A3A8C41BDD301210D4B596210
:102190009A6A0A439A620C4A11609A691018186088
:1021A00020BF196109480160ADE720BFABE7FEBD64
:1021B000D00C002000000420580C002088360010AD
:1021C000D12100101040054000E100E080E100E076
:1021D000F0B59BB0F44A1068F44901431160F4482B
:1021E000FFF7F4F983208000F2490860F24D0024E3
:1021F000AC6455204101F14801602F21C1600168A4
:10220000EF4A0A43026041680029FCD5E8680121D1
:1022100009918843E8606869C007FCD028680321F9
:10222000009188432860A868C007FCD0E548E649CB
:1022300006220892FFF7D4F9E448E54905273A4613
:10224000FFF7CEF9042004900B900A950AA802210A
:10225000E04AE14E07911346B04728460C300C90F7
:1022600005970D970CA8DD4A09991346B0472846F3
:1022700024300E9007200F900EA8D94A214613460D
:10228000B0472846303010900827119710A82146F3
:10229000D34A1346D04EB04728463C30149009200C
:1022A0000690159014A8CF4B2146CD4ACA4EB04790
:1022B000183512950898139012AD28462146C74A42
:1022C0001346B047C848FFF781F909980006B64E93
:1022D000316801433160FFF779F9281D0390C34845
:1022E000802C09D000210151021951608023D15066
:1022F000803251600834F3E7BD4800244464BD498E
:102300000A68FF239A430A60BB4920220A60BB4B3C
:102310001A600A60069981620C21C16201460C397B
:10232000099B0B6059070160B549416419040268B3
:102330000A43026030681843306030689843306068
:10234000089413941293B068C007FCD0AD48099963
:102350000160FFF733F91A200290049D2946FFF728
:10236000C7F81C20FFF7B0FA0190412080000690CA
:10237000A5480068A549884203D0A549884203D0F2
:102380005AE0079D00980590072428462146FFF74C
:10239000AFF805982146FFF7ABF89B4801689D48C8
:1023A0000A18504250419A4A914200D007013068C1
:1023B000384330603068B8433060B0683842FCD091
:1023C000914C2046FFF7EEF9002835D1089860605F
:1023D0002068002800D1E5E006996131016020689D
:1023E000002800D1DEE00899C16381638821009A4A
:1023F0004250854C2046FFF7D5F900281CD12068B3
:10240000002800D1CEE0016804220A4307998A43DC
:1024100002602068002800D1C4E07E21C161BB2198
:102420000162A0210B224250C16F7B4A0A40263232
:10243000C2677548FFF7D8F90C20784CA0472246B0
:1024400077490160704941603C2101810146059056
:1024500014AC0798A076099886020746268371482F
:102460001990159170481490304690470790E77680
:102470001896179616906420089D294600F0E6F8F5
:10248000AE216A4F2046B847D5212046B847802163
:102490002046B847A8212046B8473F212046B847E4
:1024A000D3212046B84720462946B8474021049109
:1024B0002046B8478D212046B84714212046B8470A
:1024C00020212046B84720462946B847A12120466A
:1024D000B847C8212046B847DA212046B84712211C
:1024E0002046B84781212046B847CF212046B8472B
:1024F000D9212046B847F1212046B847DB212046A4
:10250000B84720460499B847A4212046B847A621D9
:102510002046B8472E212046B847AF212046B8476D
:10252000204600F0CFF8204600F0CCF8204600F01E
:10253000DDF83F48019F3C4939600599796007996A
:10254000B960FE603E6137497961B8610698334DE4
:10255000A8470446089E06600820A8472946054665
:10256000076044601820884701463248324A8E602E
:10257000C8600D614A6102980870304C626830484A
:10258000FEF7E0FB22682F483146FEF7DBFB2E4CBE
:1025900061690398FEF79DFBFEF7AAFB0998E073BB
:1025A0001BB0F0BDFFF722FC00C00040BFCDFBFE1A
:1025B000FE7F3CFE2C800540308000400040024001
:1025C00000B0FA0000800240002F685900C00240AD
:1025D00000389C1C001BB700691600104059730797
:1025E000006CDC021BB70000FFFFFF010000105071
:1025F0004C00115004E400E000E100E080E200E063
:102600001010010000C004400008002000800440B9
:10261000004004400080FBBF0000FFFFC91800100D
:1026200070360010800040008036001049270010EE
:102630000004020100408F40292B00108836001052
:10264000CF2B0010E32B0010580C0020F8B500220F
:1026500043428A4132DA1A4D6E69002E21D07D2222
:10266000D20000230093FDF7A7FDB060F160FFF7F3
:102670007FF8EA6B002A01D1286769673C35286832
:10268000002810D08368C168B768F268FC1A144645
:102690008C410AD3F81AB0608A41F2602D68002D8F
:1026A000EDD1FFF7A3FB009804E0DB1B83609141B1
:1026B000C160286830602E60FEF71AFBF8BDC04686
:1026C000580C002000280FD000211822825E914271
:1026D00007DAC2688A4205D9826800235354491C2C
:1026E000F3E77047FFF7CAFAFFF780FB7CB50028D5
:1026F00026D00446C07E01281AD12121114E204641
:10270000B047002520462946B047207D411E20467F
:10271000B04722212046B04720462946B047162020
:10272000205E410F401880B2C008411E2046B047CD
:102730002368221D07CA0093002300F011F87CBD16
:10274000FFF754FB49270010E0B501AA117001689A
:1027500040680091012311461A4600F001F88CBD33
:10276000F0B585B004920C465A490A9A8A4200D0C4
:10277000A9E0D90704D0002800D1A4E0002703E095
:10278000002800D19FE040270168534A914200D0C1
:1027900099E004994D1C00D597E0028903924668A0
:1027A0002846FFF791F80295002D00D18FE00770C1
:1027B0000190401C2146049AFDF7F6FC002E00D142
:1027C00081E035467068002815D1FEF7D1FF0E462E
:1027D0000022424944185641039800060BD4782041
:1027E0000399084007D0782805D017462846FEF7F9
:1027F000D9FF002801D005B0F0BD2868002862D0BC
:102800000399C9B241602846FEF7EEFF012040025D
:1028100003903B460299F8074CD18B424ADA28686C
:10282000002850D004998B42039900D000215A42CD
:102830005A41920251180093019AD25C0A430261F4
:1028400010212846FEF7DAFFC00708D1FEF790FFF7
:10285000201A30468841CED3FFF72AFCF0E72846FD
:10286000FEF7D7FF0746002803D02846FEF7D9FF1A
:1028700003E004980099814217D1781E87412846C9
:102880000399FEF7BBFFC00708D1FEF771FF201ABE
:1028900030468841AFD3FFF70BFCF0E728680028EB
:1028A000009B10D0006E029902E000270299009B65
:1028B0005B1CB0E72846FEF7ACFF00289BD02846FB
:1028C000FEF7AFFF97E7FFF791FAFFF787FAFFF7F9
:1028D000D5F9C0468036001070360010409C0000CC
:1028E00070B50DB2002D2ED400282DD01424045F15
:1028F000AC4228DD15B2002D25D41626865FAE42E7
:1029000021DD95B2ED086543691809B2C4681B065C
:102910000FD1049B1B060CD1059B1B0609D18C42D1
:1029200014D907231A40012393408068425C9A43DC
:1029300008E08C420AD907231A400123934080689B
:10294000425C1A43425470BDFFF750FAFFF796F904
:1029500088B0194614460390614A624B2046FDF741
:102960007FFE06460F460124E2435F4BFDF750FC15
:102970000546401E8541002205925C4B3046079774
:102980003946FDF74FFC411E07468F41E10704948D
:102990006242059C0191A14102910690002800D15C
:1029A000224600922F403046079932460B46FEF7EA
:1029B000CBF805460028214600D100990091304609
:1029C0000799FEF7D9F80646002F00D1009E069819
:1029D000002801D101980290002D204600D10298D4
:1029E0002346002F00D101467D20C20030460C4610
:1029F000FDF72CFCB01A06909C410794099C08989E
:102A000005900398C5B21A3D03950027032D0FD8F2
:102A1000A80002A109583E4638468F46512A0010A8
:102A20002D2A0010452A00104B2A001004980DE0B2
:102A30000820FEF749FF1C212E4A02604160002653
:102A40002D4805E00498460301E0032006033846BC
:102A5000002835D14827294DE85D012807D169694B
:102A600028464C30FEF735F9FEF742F901E00498AC
:102A7000E855072000031E4A116881433143116065
:102A80001068042101431160FEF798FDE85D0128FC
:102A900022D1EFF3108172B6E86C002808D00268EA
:102AA000EA640022026081F31088FFF7D9F903E09D
:102AB00081F310880020E855039D0D484068070108
:102AC000002C07D038460599A04706980799FFF7CC
:102AD000BDFD9AE7FFF78AF90948FFF797F9C04665
:102AE0009A9999999999C9BFFFFFDF430000E0C304
:102AF00000C00440982F001068360010580C0020C9
:102B0000902F0010064C074D0D212046FFF7D6F8F8
:102B1000FFF702F900212846FFF798FDF4E7C046C9
:102B20001C33001000CA9A3BF0B58FB0049084C9E2
:102B3000106807905068069090680590D5681669EF
:102B40005469138B917ED27E08A8C2768176038366
:102B50000D940C960B9505980A9006980990079885
:102B60000890002F31D039687F292CD8049880B282
:102B7000840A480038188288FF25002300930193B7
:102B8000029508AE3046FFF7ABFE39680095019517
:102B90000295304622462B46FFF7A2FE38687F2872
:102BA00011D84000381884803868401CC117490E7D
:102BB00041187F229143401A386002D108A8FFF7DC
:102BC00095FD0FB0F0BDFFF759F8FFF70FF982B090
:102BD0008268C36801694469007800910194FFF735
:102BE000B7FEFFF78FFFD4D47A00000068360010DC
:102BF000082F0010A32D00106572726F72732E657E
:102C000072726F72537472696E67000004204943D8
:102C10005F46535F53434C5F4C434E54000434496A
:102C2000435F5241575F494E54525F5354415400E1
:102C3000041049435F444154415F434D4400727561
:102C40006E74696D652F766F6C6174696C650004D4
:102C5000980149435F41434B5F47454E4552414CC4
:102C60005F43414C4C00045049435F434C525F5218
:102C7000445F52455100047849435F5258464C52D4
:102C800000043849435F52585F544C0004A801497E
:102C9000435F434C525F524553544152545F444545
:102CA00054006D616368696E6500044049435F4389
:102CB0004C525F494E54520074696E79676F2E6FA3
:102CC00072672F782F647269766572732F737364DD
:102CD000313330360004F40149435F434F4D505FB8
:102CE000504152414D5F3100044849435F434C52CB
:102CF0005F52585F4F56455200047049435F53542A
:102D00004154555300043049435F494E54525F4D7E
:102D100041534B00046049435F434C525F53544F4F
:102D2000505F4445540004840149435F534C565F4F
:102D3000444154415F4E41434B5F4F4E4C590064F8
:102D400065766963652F727000048C0149435F44A6
:102D50004D415F54444C5200041849435F53535F44
:102D600053434C5F4C434E5400046449435F434C0F
:102D7000525F53544152545F4445540074696E7914
:102D8000676F2E6F72672F782F6472697665727322
:102D900000046849435F434C525F47454E5F4341DF
:102DA0004C4C006572726F72730004A00149435F5E
:102DB00046535F53504B4C454E00040449435F5407
:102DC000415200043C49435F54585F544C00045C3A
:102DD00049435F434C525F4143544956495459005B
:102DE00004940149435F5344415F53455455500097
:102DF00004900149435F444D415F52444C520004EA
:102E00001449435F53535F53434C5F48434E540050
:102E100004FC0149435F434F4D505F5459504500F6
:102E2000045449435F434C525F54585F41425254EB
:102E300000045849435F434C525F52585F444F4E21
:102E40004500040849435F53415200042C49435F45
:102E5000494E54525F5354415400044C49435F431C
:102E60004C525F54585F4F5645520004800149430D
:102E70005F54585F414252545F534F55524345008F
:102E800004F80149435F434F4D505F564552534943
:102E90004F4E00047449435F5458464C5200048816
:102EA0000149435F444D415F435200047C49435F05
:102EB0005344415F484F4C4400049C0149435F45E3
:102EC0004E41424C455F53544154555300041C49F4
:102ED000435F46535F53434C5F48434E54000444A2
:102EE00049435F434C525F52585F554E4445520030
:102EF00004084164647265737300046C49435F4560
:102F00004E41424C4500D4D45A000000242F0010FA
:102F1000A32D001008000000010000007432001012
:102F2000342F0010D5000000082F001000245F008F
:102F30005069636F000073002070633D000C5F00F8
:102F4000676F726F7574696E6520737461636B204F
:102F50006F766572666C6F77626C6F636B65642009
:102F6000696E7369646520696E74657272757074D8
:102F700073796E633A20756E6C6F636B206F662099
:102F8000756E6C6F636B6564204D75746578D4D411
:102F9000702F00101E0000006E6F2041444320631C
:102FA00068616E6E656C20666F722070696E207647
:102FB000616C7565636C6F636B20667265717565B6
:102FC0006E63792063616E6E6F7420626520677234
:102FD0006561746572207468616E20736F757263C9
:102FE00065206672657175656E6379D4B42F0010C3
:102FF0003700000052617370626572727920506907
:1030000000000000830000000200000082000000B9
:10301000FF000000FF000000FF000000FF000000B4
:103020006865617020616C6C6F6320696E20696EE9
:10303000746572727570746F7574206F66206D653B
:103040006D6F727970616E69633A2070616E696349
:103050003A2072756E74696D65206572726F7220A8
:103060006174203A206E696C20706F696E746572AD
:103070002064657265666572656E6365696E646518
:1030800078206F7574206F662072616E6765736C4F
:10309000696365206F7574206F662072616E676565
:1030A0006E696C666174616C206572726F723A2031
:1030B000737461636B206F766572666C6F773F2007
:1030C000696E737472756374696F6E206163636592
:1030D00073732076696F6C6174696F6E646174617B
:1030E000206163636573732076696F6C6174696FC7
:1030F0006E696E737472756374696F6E2062757336
:10310000206572726F7264617461206275732065EC
:1031100072726F72202870726563697365296461C9
:10312000746120627573206572726F722028696DF8
:103130007072656369736529207768696C652075AD
:103140006E737461636B696E672065786365707414
:10315000696F6E207768696C6520737461636B6951
:103160006E6720657863657074696F6E2064757230
:10317000696E6720666C6F6174696E672D706F6928
:103180006E74206C617A792073746174652070723A
:1031900065736572766174696F6E756E6465666974
:1031A0006E656420696E737472756374696F6E699D
:1031B0006C6C6567616C20757365206F6620746840
:1031C000652045505352696C6C6567616C206C6F6B
:1031D0006164206F66204558435F52455455524EF6
:1031E00020746F20746865205043636F70726F6342
:1031F0006573736F72206163636573732076696FA3
:103200006C6174696F6E756E616C69676E65642060
:103210006D656D6F72792061636365737364697640
:10322000696465206279207A65726F756E6B6E6F66
:10323000776E2068617264206661756C74207769AE
:103240007468206661756C74206164647265737360
:1032500020207769746820627573206661756C74CC
:1032600020616464726573732020776974682073C9
:10327000703DD4D4510000007C320010D500000015
:10328000743200107A00000080360010A432001062
:10329000B82C0010737364313330362E49324342F8
:1032A000757300005A000000C8320010B82C0010DE
:1032B0000C00000002000000D8320010D0320010D4
:1032C0000C330010F02E0010D5000000A4320010C6
:1032D00000007769726500D474000000F4320010B9
:1032E000FC3200107C2D0010647269766572732EBA
:1032F00049324300D5000000D832001054000000CD
:1033000004330010D5000000FC320010C90000009A
:1033100014330010D50000000C3300104920616DFB
:1033200020616C6976652E2E2ED4D4D4FA0000006C
:103330007036001048330010A22C00106D616368D5
:10334000696E652E49324300DA00000074330010C4
:10335000A22C00100C0000000300000060360010DA
:103360007C33001008360010003600105036001074
:1033700040360010D50000004833001004004275AC
:103380007300D4D4FA00000060360010A43300109B
:103390003F2D001072702E493243305F54797065B2
:1033A00000000000DA000000283500103F2D00105A
:1033B000000100002E0000003C35001030350010E8
:1033C0003C350010BA2D00103C350010422E001084
:1033D0009C3500103C2F00103C350010302C0010A4
:1033E0003C350010FF2D00103C350010582D00100A
:1033F0003C350010CD2E00103C3500100C2C001078
:10340000C43500102C2F00103C3500104B2E00103E
:103410003C350010052D00103C3500101D2C00100F
:103420003C350010812C00103C350010C32D0010DD
:103430003C350010AA2C00103C350010DE2E001088
:103440003C350010E82C00103C3500105A2E0010BE
:103450003C350010662C00103C350010202E00106A
:103460003C350010312E00103C350010CE2D0010E0
:103470003C350010142D00103C350010692D001053
:103480003C350010912D00103C350010FA2E001034
:103490003C350010F92C00103C350010932E001024
:1034A0003C350010762C00103C350010AB2E00107F
:1034B0003C3500106B2E00103C350010262D0010FE
:1034C0003C3500109E2E00103C350010492D001098
:1034D0003C350010F02D00103C350010E02D0010A0
:1034E0003C3500104F2C00103C350010B92E001058
:1034F0003C350010AA2D00109C350010DC35001062
:103500003C3500108C2C0010E8350010E13500101F
:103510003C350010D52C00103C350010802E0010DA
:103520003C350010102E0010D5000000A433001010
:10353000040049435F434F4E00D4D4D4FA00000046
:1035400078360010603500103E2C0010766F6C61EC
:1035500074696C652E5265676973746572333200E5
:10356000DA0000007C3500103E2C00100400000042
:10357000010000008C35001084350010D5000000DB
:1035800060350010040052656700D4D4CA00000002
:1035900094350010D50000008C350010D7000000D5
:1035A000AC350010B435001004000000D500000058
:1035B0009C350010C8000000BC350010D50000008C
:1035C000B4350010D7000000D4350010B435001019
:1035D00008000000D5000000C435001000A4015F01
:1035E0000000AC015F00D4D4D7000000F835001013
:1035F000B435001048000000D5000000E835001088
:1036000000046D6F646500D4E200000028360010ED
:1036100030360010A22C00106D616368696E652E53
:103620004932434D6F646500D50000000836001034
:10363000C200000038360010D500000030360010FF
:1036400000087478496E50726F677265737300D4A6
:10365000C100000058360010D500000050360010A0
:10366000D500080184330010D5000100E82B0010BC
:10367000D50008002C330010D50006003C350010A2
:10368000D50000008432001000080000000800008F
:10369000000800000080044000000000000000005E
:1036A0000800000000C2010012010002EF02014008
:1036B00086282D80000101020301000009024B0051
:1036C000020100A032080B000202020100090400FE
:1036D000000102020100052400100105240100017F
:1036E00004240202052406000107058103100010CE
:1036F00009040100020A0000000705020240000060
:083700000705830240000000F0
:00000001FF
